{
  "_format": "hh-sol-artifact-1",
  "contractName": "MessageBoard",
  "sourceName": "contracts/MessageBoard.sol",
  "abi": [
    {
      "anonymous": false,
      "inputs": [
        {
          "indexed": true,
          "internalType": "address",
          "name": "sender",
          "type": "address"
        },
        {
          "indexed": false,
          "internalType": "string",
          "name": "content",
          "type": "string"
        },
        {
          "indexed": false,
          "internalType": "uint256",
          "name": "timestamp",
          "type": "uint256"
        }
      ],
      "name": "MessagePosted",
      "type": "event"
    },
    {
      "inputs": [],
      "name": "getMessages",
      "outputs": [
        {
          "components": [
            {
              "internalType": "address",
              "name": "sender",
              "type": "address"
            },
            {
              "internalType": "string",
              "name": "content",
              "type": "string"
            },
            {
              "internalType": "uint256",
              "name": "timestamp",
              "type": "uint256"
            }
          ],
          "internalType": "struct MessageBoard.Message[]",
          "name": "",
          "type": "tuple[]"
        }
      ],
      "stateMutability": "view",
      "type": "function"
    },
    {
      "inputs": [
        {
          "internalType": "uint256",
          "name": "",
          "type": "uint256"
        }
      ],
      "name": "messages",
      "outputs": [
        {
          "internalType": "address",
          "name": "sender",
          "type": "address"
        },
        {
          "internalType": "string",
          "name": "content",
          "type": "string"
        },
        {
          "internalType": "uint256",
          "name": "timestamp",
          "type": "uint256"
        }
      ],
      "stateMutability": "view",
      "type": "function"
    },
    {
      "inputs": [
        {
          "internalType": "string",
          "name": "_content",
          "type": "string"
        }
      ],
      "name": "postMessage",
      "outputs": [],
      "stateMutability": "nonpayable",
      "type": "function"
    }
  ],
  "bytecode": "0x6080604052348015600f57600080fd5b506106cd8061001f6000396000f3fe608060405234801561001057600080fd5b50600436106100415760003560e01c80630d80fefd146100465780635ff6cbf3146100715780636630f88f14610086575b600080fd5b610059610054366004610367565b61009b565b604051610068939291906103c6565b60405180910390f35b610079610163565b60405161006891906103fa565b61009961009436600461048c565b610274565b005b600081815481106100ab57600080fd5b6000918252602090912060039091020180546001820180546001600160a01b039092169350906100da90610500565b80601f016020809104026020016040519081016040528092919081815260200182805461010690610500565b80156101535780601f1061012857610100808354040283529160200191610153565b820191906000526020600020905b81548152906001019060200180831161013657829003601f168201915b5050505050908060020154905083565b60606000805480602002602001604051908101604052809291908181526020016000905b8282101561026b57600084815260209081902060408051606081019091526003850290910180546001600160a01b0316825260018101805492939192918401916101d090610500565b80601f01602080910402602001604051908101604052809291908181526020018280546101fc90610500565b80156102495780601f1061021e57610100808354040283529160200191610249565b820191906000526020600020905b81548152906001019060200180831161022c57829003601f168201915b5050505050815260200160028201548152505081526020019060010190610187565b50505050905090565b60006040518060600160405280336001600160a01b0316815260200184848080601f01602080910402602001604051908101604052809392919081815260200183838082843760009201829052509385525050426020938401525083546001808201865594825290829020835160039092020180546001600160a01b0319166001600160a01b0390921691909117815590820151919290919082019061031a908261059f565b506040918201516002909101555133907f6d334e6c56ab039764300c508e6f79891f4ddce8d92de4108c43fa1de6908a289061035b9085908590429061065e565b60405180910390a25050565b60006020828403121561037957600080fd5b5035919050565b6000815180845260005b818110156103a65760208185018101518683018201520161038a565b506000602082860101526020601f19601f83011685010191505092915050565b6001600160a01b03841681526060602082018190526000906103ea90830185610380565b9050826040830152949350505050565b6000602082016020835280845180835260408501915060408160051b86010192506020860160005b8281101561048057868503603f19018452815180516001600160a01b0316865260208082015160609188018290529061045d90880182610380565b604092830151979092019690965294506020938401939190910190600101610422565b50929695505050505050565b6000806020838503121561049f57600080fd5b823567ffffffffffffffff8111156104b657600080fd5b8301601f810185136104c757600080fd5b803567ffffffffffffffff8111156104de57600080fd5b8560208284010111156104f057600080fd5b6020919091019590945092505050565b600181811c9082168061051457607f821691505b60208210810361053457634e487b7160e01b600052602260045260246000fd5b50919050565b634e487b7160e01b600052604160045260246000fd5b601f82111561059a57806000526020600020601f840160051c810160208510156105775750805b601f840160051c820191505b818110156105975760008155600101610583565b50505b505050565b815167ffffffffffffffff8111156105b9576105b961053a565b6105cd816105c78454610500565b84610550565b6020601f82116001811461060157600083156105e95750848201515b600019600385901b1c1916600184901b178455610597565b600084815260208120601f198516915b828110156106315787850151825560209485019460019092019101610611565b508482101561064f5786840151600019600387901b60f8161c191681555b50505050600190811b01905550565b604081528260408201528284606083013760006060848301015260006060601f19601f860116830101905082602083015294935050505056fea26469706673582212206d4c2bdb2b232ef46cab0334fb211f84ee8458ffb7017ac36170867e8c7ff29264736f6c634300081b0033",
  "linkReferences": {},
  "deployedLinkReferences": {}
}